:020000040000FA
:10000000A7EF00F00F013F8F3F913F931200F29E48
:10001000550EA76EAA0EA76E0F013F8BF28E12002F
:100020000F013F9B12007F6E0F013FB9FDD70F01FB
:100030003F81EDDF7FCF3AFFF3D77F6E0F013FB9EE
:10004000FDD70F013F91E3DF7FCF3BFFE9D77F6E05
:100050000F013FB9FDD70F013F91D9DF7FCF3AFFA5
:10006000DFD70F013FB9FDD70F013F81D0DF0F016F
:100070003A51010F07003A6FD3D70F013FB9FDD7AF
:100080000F013F81C4DF0F013A51E80607003A6FC4
:10009000C7D70F013FB9FDD70F013F91B8DF0F015F
:1000A0003B51010F07003B6FBBD70F013FB9FDD795
:1000B0000F013F91ACDF0F013B51E80607003B6F9A
:1000C000AFD70F013FB9FDD70F013F91A0DF0F015F
:1000D0003A51010F07003A6FA3D70F013FB9FDD77F
:1000E0000F013F9194DF0F013A51E80607003A6F84
:1000F00097D7026E0F0E021465D80B6E023A0F0EE0
:10010000021460D80A6E1200026E0F0E02145AD842
:10011000086E023A0F0E021455D8076E1200026ED6
:100120000F0E02144FD8056E023A0F0E02144AD871
:10013000046E12007F6E816AEA6A040E7F24E96E03
:10014000EFCF82FF100E7F243DD8816E12001F0E6C
:10015000C16E936A946A050ECCDF050ED5DF050EDD
:10016000DEDF006A002A0050010AD8B40DD0030A6D
:10017000D8B40FD0010AD8B411D0070AD8B413D01C
:10018000010AD8B415D018D0010E816EFE0E826E11
:1001900013D0020E816EFD0E826E0ED0040E816EA3
:1001A000FB0E826E09D0080E816EBF0E826E04D0E7
:1001B00081687F0E826E006A01680152D8B4D2D77E
:1001C0000106FBD7036E0350DA0FF66E010EF76AD5
:1001D000F722F86A0800F550120000400444024279
:1001E0000646014105450343074701020408102064
:0201F00040804D
:107FFC00FE00F700D800FF00FD00FB00BF00FB00F7
:00000001FF
