:020000040000FA
:0400000042EF03F0D8
:1000080001D811009EB208D012004E0ECA6EFA0E28
:10001800CB6E9E929D8212009E921B2A1200116E38
:1000280011C01AF01200116E11C019F012007F6E83
:100038007FCF18F012001A2A230E1A6442D01A6AC7
:1000480012001A52D8A403D0230E1A6E03D0990EA8
:100058001A2637D01200192A590E196436D0196A8F
:1000680012001952D8A403D0590E196E03D0990E54
:1000780019262BD01200182A590E18642AD0186A8B
:1000880012001852D8A403D0590E186E03D0990E36
:1000980018261FD012001A501200195012001850BA
:1000A8001200182A590E186414D0186A192A590E01
:1000B80019640BD0196A1A2A230E1A6402D01A6A14
:1000C80012001A5007001A6E120019500700196E14
:1000D800120018500700186E1200116E1D9011B012
:1000E8001D801E9011B21E801F9011B41F80209099
:1000F80011B620801D9211B81D821E9211BA1E825F
:100108001F9211BC1F82209211BE20821200116E14
:100118001D9611B01D861E9611B21E861F9611B42B
:100128001F86209611B620861D9811B81D881E9826
:1001380011BA1E881F9811BC1F88209811BE2088EC
:100148001200116E1D9C11B01D8C1E9C11B21E8CCC
:100158001F9C11B41F8C209C11B6208C1D9E11B8B9
:100168001D8E1E9E11BA1E8E1F9E11BC1F8E209EB4
:1001780011BE208E1200116E480E6ED81D9011B05F
:100188001D801E9011B21E801F9011B41F802090F8
:1001980011B620801D9211B81D821E9211BA1E82BE
:1001A8001F9211BC1F82209211BE20821200116E74
:1001B8004D0E52D81D9011B01D801E9011B21E8098
:1001C8001F9011B41F80209011B620801D9211B885
:1001D8001D821E9211BA1E821F9211BC1F8220928C
:1001E80011BE20821200116E530E36D81D9011B028
:1001F8001D801E9011B21E801F9011B41F80209088
:1002080011B620801D9211B81D821E9211BA1E824D
:100218001F9211BC1F82209211BE20821200620E12
:10022800216E950E206E840E1F6EB50E1E6E620E28
:100238001D6E12001D6A1E6A1F6A206A216A12005A
:10024800116E8268EA6A1D0E1124E96EEFCF81FFF4
:1002580011508FDA826E1200126E410E125E125029
:10026800040DF3501226050E122483DA216E122A89
:10027800050E12247EDA206E122A050E122479DA6F
:100288001F6E122A050E122474DA1E6E122A050E2B
:1002980012246FDA1D6E122A1200166E1650040D03
:1002A800F3501626F80E2116870E162462DA21124C
:1002B800162AF80E2016870E16245BDA2012162A44
:1002C800F80E1F16870E162454DA1F12162AF80E77
:1002D8001E16870E16244DDA1E12162AF80E1D1643
:1002E800870E162446DA1D12162A1200116E120005
:1002F800116E12001C6A9ED7B39EB39AB398B39638
:10030800B394B392B390B29EB28AB28CB288B284DC
:10031800B286030EB16E0F0148691F0E496FC26A9B
:100328000A0EC16EC280B38E926A896A2A6A2B6AE3
:100338002C6A2D6A266A276A286A296A226A236A29
:10034800246A256A326A336A346A356A1200146E7E
:10035800896A0000000000000000000000000000A2
:100368000000B90E142405DA926EBD0E142401DAC9
:100378000F01486F000000000000000000000000AE
:1003880000000000C10E1424F4D9000AD8A4C284C5
:10039800D8B4C294C50E1424ECD9000AD8A4C286D5
:1003A800D8B4C296B382000000000000000000002C
:1003B800B39200000000B292B280156A040E156074
:1003C80002D0152AFBD7B290C282C2B2FED7926A77
:1003D800896A0F0148691F0E496F7F0EC46402D0F5
:1003E800C46802D0D890C436C3AEC490C3BEC4801B
:1003F800EA6A2E0E1424E96EC4CFEFFFC45012002F
:10040800116EEA6A220E1124E96EEFCF13F0115033
:100418009EDFEA6A2E0E1124E96EEFCF12F0135216
:10042800D8B412C013F0140E135C126014D0EA6A28
:100438002A0E1124E96E040EEF6006D0EA6A2A0E2D
:100448001124E96EEF2A19D0EA6A260E1124E96E02
:10045800010EEF6E12D0EA6A2A0E1124E96EEF50EF
:10046800D8B406D0EA6A2A0E1124E96EEF0605D040
:10047800EA6A260E1124E96EEF6AEA6A320E11243E
:10048800E96EEF2A0F0EEF6429D0EA6A320E1124C2
:10049800E96EEF6AEA6A260E1124E96EEF50D8A4D5
:1004A8000DD01340E8423F0BD8B0010F135E124045
:1004B800E8423F0BD8B0010F13260AD013380F0BB0
:1004C800D8B0010F135E12380F0BD8B0010F1326E6
:1004D800EA6A220E1124E96E13C0EFFFEA6A260EBB
:1004E8001124E96EEF501200000C366A050E376EC3
:1004F800010E386E090E396E0A0E3A6E050E3B6E05
:10050800140E3C6E800E376E010E386E396812007C
:100518003650D8B413D0010AD8B418D0030AD8B4C6
:1005280018D0010AD8B418D0070AD8B418D0010ACC
:10053800D8B41AD0030AD8B41CD01FD07BDEAFDDE4
:10054800CCDDABDDE4DDA7DDFCDD17D0A4DD13DEFB
:1005580014D0A3DD2CDE11D0A2DD45DE0ED0420E74
:100568007BDE000E51D809D0440E76DE010E4CD841
:1005780004D0430E71DE020E47D81200116E3650B9
:10058800D8B43BD0010AD8B410D0030AD8B416D0D6
:10059800010AD8B41CD0070AD8B422D0010AD8B4AA
:1005A80023D0030AD8B425D028D0030E116201D075
:1005B80042DD020E116221D044DD1FD0030E11620C
:1005C80001D049DD020E116218D04BDD16D0030EA2
:1005D800116201D050DD020E11620FD052DD0DD034
:1005E800126A11501AD809D0010E126E115015D87E
:1005F80004D0020E126E115010D8112C04D0362AD5
:10060800070E3660366A1200156EEA6A030E150286
:10061800F350370FE96EEF5040D6136EEA6A030EB7
:100628001202F350370FE96EEFCF14F0030E136286
:1006380010D0EA6A030E1202F350390FE96EEF5038
:10064800146007D0EA6A030E1202F350370FE96EFE
:10065800EF2A020E136210D0EA6A030E1202F35058
:10066800380FE96E1450EF6007D0EA6A030E1202E1
:10067800F350370FE96EEF061250C6D7880E9B6EFF
:100688000EEEBFF0ED6AEA50FDE1E950FBE1EF6ADA
:100698001F0EC16E936A946A050E1FDD050E37DDC5
:1006A800050E4FDDC10ED56EF294D09EF28CF28EFF
:1006B800ACDC110EB4DC350EB6DC1CDEB0DD106A25
:1006C800FA0E10600DD00F6A050E0F6007D00F509C
:1006D800B7DDF2A4FED7F2940F2AF6D7102AF0D786
:1006E800A9DD096A09DE01DF9D92180E1B6404D09A
:1006F800190E1B5E9D82D5DC9D820ADF0F6A050EEE
:100708000F60F2D70F509CDDF2A4FED7F294040ECE
:100718000F6018D00F5074DE000AD8B408D00F50FC
:10072800E5DDEA6A0F50E96E010EEF6E0BD00F504F
:10073800DFDDEA6A0F50E96EEF6AEA6A050E0F24F8
:10074800E96EEF6AEA6A0F50E96EEF50D8B40FD03D
:10075800EA6A050E0F24E96EEF50D8A408D00F50AE
:100768000DDFEA6A050E0F24E96E010EEF6E0F2AFF
:10077800C6D7176E1750900FF66E070EF76AF72256
:10078800F86A0800F5501200FEFDFBBF7F40A0E0AC
:10079800A0A0C0A0C0A0C040A080A040C0A0A0A0B1
:1007A800C0E080E080E0E080E0808040A080E04021
:1007B800A0A0E0A0A040404040E0202020A040A011
:1007C800C080C0A080808080E0A0E0A0A0A0A0E0C1
:1007D800E0A0A040A0A0A040C0A0C0808040A0A0F1
:1007E800A060C0A0C0C0A0E0804020E0E040404041
:1007F800E0A0A0A0A0E0A0A0A0A040A0A0A0E0A091
:10080800A0A040A0A0A0A0404040E0204080E0027E
:10081800050505020202020202060102040706019A
:100828000201060505070101070406010602040680
:100838000502070102020202050205020205030180
:100848000201020408FEFDFBF7000100010000019F
:0208580001009D
:107FFC00BE00F700D800FF00FD00FB00BF00FB0037
:00000001FF
