:020000040000FA
:04000000CFEF02F04C
:1000080001D811009EB208D012004E0ECA6EFA0E28
:10001800CB6E9E929D8212009E921A2A1200116E39
:1000280011C019F01200116E11C018F012007F6E85
:100038007FCF17F01200192A230E196441D0196ACC
:1000480012001952D8A403D0230E196E03D0990EAA
:10005800192636D01200182A590E186435D0186A95
:1000680012001852D8A403D0590E186E03D0990E56
:1000780018262AD01200172A590E176429D0176A91
:1000880012001752D8A403D0590E176E03D0990E38
:1000980017261ED0120019501200185012001750BF
:1000A8001200172A590E176413D0176A182A590E06
:1000B80018640AD0186A192A230E196401D012008C
:1000C80019500700196E120018500700186E120018
:1000D80017500700176E1200116E1C9011B01C808B
:1000E8001D9011B21D801E9011B41E801F9011B674
:1000F8001F801C9211B81C821D9211BA1D821E927B
:1001080011BC1E821F9211BE1F821200116E1C9616
:1001180011B01C861D9611B21D861E9611B41E863E
:100128001F9611B61F861C9811B81C881D9811BA05
:100138001D881E9811BC1E881F9811BE1F881200AA
:10014800116E1C9C11B01C8C1D9C11B21D8C1E9C28
:1001580011B41E8C1F9C11B61F8C1C9E11B81C8ECE
:100168001D9E11BA1D8E1E9E11BC1E8E1F9E11BE95
:100178001F8E1200116EA00E206EA00E1F6EE00ED4
:100188001E6EA00E1D6EA00E1C6E1C9011B01C8061
:100198001D9011B21D801E9011B41E801F9011B6C3
:1001A8001F801C9211B81C821D9211BA1D821E92CA
:1001B80011BC1E821F9211BE1F821200116EA00E6A
:1001C800206EE00E1F6EA00E1E6EA00E1D6EA00EFD
:1001D8001C6E1C9011B01C801D9011B21D801E90C9
:1001E80011B41E801F9011B61F801C9211B81C827A
:1001F8001D9211BA1D821E9211BC1E821F9211BE41
:100208001F821200116EE00E206E800E1F6EE00E2F
:100218001E6E200E1D6EE00E1C6E1C9011B01C8010
:100228001D9011B21D801E9011B41E801F9011B632
:100238001F801C9211B81C821D9211BA1D821E9239
:1002480011BC1E821F9211BE1F821200620E206E08
:10025800950E1F6E840E1E6EB50E1D6E620E1C6E00
:1002680012001C6A1D6A1E6A1F6A206A1200116E3B
:100278008268EA6A1C0E1124E96EEFCF81FF1150E3
:1002880005DA826E1200116E1150010AD8B40AD034
:10029800010AD8B409D0030AD8B408D0010AD8B4DE
:1002A80007D007D0208A05D0208803D0208401D029
:1002B80020801200116E1150010AD8B40AD0010A28
:1002C800D8B409D0030AD8B408D0010AD8B407D0E2
:1002D80007D0209A05D0209803D0209401D02090F0
:1002E80012001B6ABED7B39EB39AB398B396B39461
:1002F800B392B390B29EB28AB28CB288B284B286FC
:10030800030EB16E0F0148691F0E496FC26A0A0ECB
:10031800C16EC280B38E926A896A296A2A6A2B6A78
:100328002C6A256A266A276A286A216A226A236A49
:10033800246A316A326A336A346A1200146E896A2E
:1003480000000000000000000000000000000000A5
:10035800050E14249BD9926E090E142497D90F0107
:10036800486F0000000000000000000000000000CE
:1003780000000D0E14248AD9000AD8A4C284D8B467
:10038800C294110E142482D9000AD8A4C286D8B403
:10039800C296B38200000000000000000000B39283
:1003A80000000000B292B280156A040E156002D0F7
:1003B800152AFBD7B290C282C2B2FED7926A896A66
:1003C8000F0148691F0E496F7F0EC46402D0C468CC
:1003D80002D0D890C436C3AEC490C3BEC480EA6A03
:1003E8002D0E1424E96EC4CFEFFFC4501200116E15
:1003F800EA6A210E1124E96EEFCF13F011509EDF47
:10040800EA6A2D0E1124E96EEFCF12F01352D8B418
:1004180012C013F0140E135C126014D0EA6A290E8D
:100428001124E96E040EEF6006D0EA6A290E112441
:10043800E96EEF2A19D0EA6A250E1124E96E010E39
:10044800EF6E12D0EA6A290E1124E96EEF50D8B483
:1004580006D0EA6A290E1124E96EEF0605D0EA6A89
:10046800250E1124E96EEF6AEA6A310E1124E96E4D
:10047800EF2A0F0EEF6429D0EA6A310E1124E96ED3
:10048800EF6AEA6A250E1124E96EEF50D8A40DD060
:100498001340E8423F0BD8B0010F135E1240E84208
:1004A8003F0BD8B0010F13260AD013380F0BD8B062
:1004B800010F135E12380F0BD8B0010F1326EA6A2A
:1004C800210E1124E96E13C0EFFFEA6A250E1124EC
:1004D800E96EEF501200000C356A12003550D8B49E
:1004E8000DD0010AD8B412D0030AD8B412D0010A28
:1004F800D8B412D0070AD8B411D010D0B2DECFDDEC
:10050800EBDDCBDD03DEC7DD1BDE08D0C4DD32DE6C
:1005180005D0C3DD53DE02D0C2DD74DE1200116ED9
:100528003550D8B40DD0010AD8B40FD0030AD8B4C6
:1005380019D0010AD8B423D0070AD8B42BD02AD0AE
:10054800112C28D0010E356E25D0030E116201D072
:1005580072DD020E116201D074DD112C1BD0020E67
:10056800356E18D0030E116201D075DD020E1162CE
:1005780001D077DD112C0ED0030E356E0BD0030E93
:10058800116201D078DD020E116201D07ADD112CE2
:1005980001D0356A1200880E9B6E0EEEBFF0ED6A30
:1005A800EA50FDE1E950FBE1EF6A1F0EC16E936A64
:1005B800946A050E91DD050EA9DD050EC1DDC10E9B
:1005C800D56EF294D09EF28CF28E1FDD110E27DDCF
:1005D800350E29DD86DE3ADE106AFA0E10600DD07F
:1005E8000F6A050E0F6007D00F5041DEF2A4FED748
:1005F800F2940F2AF6D7102AF0D733DE096A73DE91
:100608006BDF9D92180E1A6404D0190E1A5E9D8233
:1006180048DD9D8263DF0F6A050E0F60F2D70F5029
:1006280026DEF2A4FED7F294040E0F6018D00F5005
:10063800DEDE000AD8B408D00F5025DEEA6A0F5073
:10064800E96E010EEF6E0BD00F5034DEEA6A0F50E0
:10065800E96EEF6AEA6A050E0F24E96EEF6AEA6A44
:100668000F50E96EEF50D8B40FD0EA6A050E0F2488
:10067800E96EEF50D8A408D00F5051DFEA6A050E92
:100688000F24E96E010EEF6E0F2AC6D7166E1650AC
:10069800AA0FF66E060EF76AF722F86A0800F550F8
:1006A8001200FEFDFBBF7F01020408FEFDFBF70000
:0806B800010001000001010036
:107FFC00BE00F700D800FF00FD00FB00BF00FB0037
:00000001FF
