:020000040000FA
:1000000085EF01F007D80F013F8F0DD80F013F9109
:100010003F931200F29E550EA76EAA0EA76E0F0117
:100020003F8BF28E12000F013F9B1200086E0F01F2
:100030003FB9FDD70F013F81EDDF08C03AFFF3D78D
:10004000086E0F013FB9FDD70F013F91E3DF08C0F4
:100050003BFFE9D77F6E0F013FB9FDD70F013F91FD
:10006000D9DF7FCF3AFFDFD70F013FB9FDD70F01AF
:100070003F81D0DF0F013A51010F07003A6FD3D70C
:100080000F013FB9FDD70F013F81C4DF0F013A5186
:10009000E80607003A6FC7D70F013FB9FDD70F0138
:1000A0003F91B8DF0F013B51010F07003B6FBBD7FA
:1000B0000F013FB9FDD70F013F91ACDF0F013B515D
:1000C000E80607003B6FAFD70F013FB9FDD70F011F
:1000D0003F91A0DF0F013A51010F07003A6FA3D7FC
:1000E0000F013FB9FDD70F013F9194DF0F013A5146
:1000F000E80607003A6F97D70F013F813A51120087
:100100000F013F913B5112000F013F913A511200F4
:10011000086E0C9008B00C800D9008B20D800E9007
:1001200008B40E800F9008B60F800C9208B80C82AD
:100130000D9208BA0D820E9208BC0E820F9208BE74
:100140000F821200086E0C9608B00C860D9608B24D
:100150000D860E9608B40E860F9608B60F860C987C
:1001600008B80C880D9808BA0D880E9808BC0E883F
:100170000F9808BE0F881200086E0C9C08B00C8CFB
:100180000D9C08B20D8C0E9C08B40E8C0F9C08B60A
:100190000F8C0C9E08B80C8E0D9E08BA0D8E0E9E0C
:1001A00008BC0E8E0F9E08BE0F8E1200620E106EDF
:1001B000950E0F6E840E0E6EB50E0D6E620E0C6EE9
:1001C00012000C6A0D6A0E6A0F6A106A1200086E3D
:1001D0008268EA6A0C0E0824E96EEFCF81FF0850AE
:1001E000E1D8826E1200086E0850D8B40AD0010A15
:1001F000D8B409D0030AD8B408D0010AD8B407D0BB
:1002000007D0108E05D0108A03D0108601D010823E
:100210001200086E0850D8B40AD0010AD8B409D028
:10022000030AD8B408D0010AD8B407D007D0109E6A
:1002300005D0109A03D0109601D0109212000B6ACC
:10024000C0D7B39EB39AB398B396B394B392B39016
:10025000B29EB28AB28CB288B284B286030EB16EFC
:100260000F0148691F0E496FC26AC16AC280B38E0E
:10027000926A896A116A1200086E896A0000000099
:10028000000000000000000000000000050E08242F
:1002900089D8926E090E082485D80F01486F000096
:1002A00000000000000000000000000000000D0E33
:1002B000082478D8000AD8A4C284D8B4C294110EF5
:1002C000082470D8000AD8A4C286D8B4C296B382D3
:1002D00000000000000000000000B39200000000D9
:1002E000B292B280096AC80E096002D0092AFBD70F
:1002F000B290C282C2B2FED7926A896A0F0148697F
:100300001F0E496FC4501200000C1F0EC16E936A7D
:10031000946A050EFDDE050E15DF050E2DDFC10EFC
:10032000D56EF2948CDF42DF016AFA0E01600DD0C7
:10033000006A050E006007D0005049DFF2A4FED726
:10034000F294002AF6D7012AF0D73BDF026A5ADE80
:10035000110E6CDE350E74DE74DFD6DED9DED0DE33
:10036000F1DECADE09DF006A050E0060F6D7005034
:100370002EDFF2A4FED7F294040E006011D00050DC
:100380007BDF076EEA6A030E0024E96E07C0EFFF09
:10039000040E076403D0005026DF02D0005039DF7E
:1003A000002AE2D70A6E0A50BA0FF66E030EF76AF9
:1003B000F722F86A0800F5501200FEFDFBBF7F012E
:1003C000020408FEFDFBF70001000100000101002E
:107FFC00BE00F700D800FF00FD00FB00BF00FB0037
:00000001FF
