:020000040000FA
:10000000E7EF01F007D80F013F8F0DD80F013F91A7
:100010003F931200F29E550EA76EAA0EA76E0F0117
:100020003F8BF28E12000F013F9B1200086E0F01F2
:100030003FB9FDD70F013F81EDDF08C03AFFF3D78D
:10004000086E0F013FB9FDD70F013F91E3DF08C0F4
:100050003BFFE9D77F6E0F013FB9FDD70F013F91FD
:10006000D9DF7FCF3AFFDFD70F013FB9FDD70F01AF
:100070003F81D0DF0F013A51010F07003A6FD3D70C
:100080000F013FB9FDD70F013F81C4DF0F013A5186
:10009000E80607003A6FC7D70F013FB9FDD70F0138
:1000A0003F91B8DF0F013B51010F07003B6FBBD7FA
:1000B0000F013FB9FDD70F013F91ACDF0F013B515D
:1000C000E80607003B6FAFD70F013FB9FDD70F011F
:1000D0003F91A0DF0F013A51010F07003A6FA3D7FC
:1000E0000F013FB9FDD70F013F9194DF0F013A5146
:1000F000E80607003A6F97D70F013F813A51120087
:100100000F013F913B5112000F013F913A511200F4
:10011000086E0F9008B00F80109008B210801190F8
:1001200008B41180129008B612800F9208B80F829E
:10013000109208BA1082119208BC1182129208BE65
:1001400012821200086E0F9608B00F86109608B241
:100150001086119608B41186129608B612860F986A
:1001600008B80F88109808BA1088119808BC118830
:10017000129808BE12881200086E0F9C08B00F8CEF
:10018000109C08B2108C119C08B4118C129C08B6FB
:10019000128C0F9E08B80F8E109E08BA108E119EFA
:1001A00008BC118E129E08BE128E1200620E136ED3
:1001B000950E126E840E116EB50E106E620E0F6EDD
:1001C00012000F6A106A116A126A136A1200086E2E
:1001D0008268EA6A0F0E0824E96EEFCF81FF0850AB
:1001E0003CD9826E1200086E0850D8B40AD0010AB9
:1001F000D8B409D0030AD8B408D0010AD8B407D0BB
:1002000007D0138805D0138A03D0138601D0138238
:100210001200086E0850D8B40AD0010AD8B409D028
:10022000030AD8B408D0010AD8B407D007D013986D
:1002300005D0139A03D0139601D0139212000E6AC0
:10024000C0D7B39EB39AB398B396B394B392B39016
:10025000B29EB28AB28CB288B284B286030EB16EFC
:100260000F0148691F0E496FC26A0A0EC16EC28033
:10027000B38E926A896A1C6A1D6A1E6A1F6A186AAE
:10028000196A1A6A1B6A146A156A166A176A1200D2
:100290000B6E896A000000000000000000000000F2
:1002A00000000000050E0B24D8D8926E090E0B2416
:1002B000D4D80F01486F00000000000000000000CB
:1002C0000000000000000D0E0B24C7D8000AD8A4BF
:1002D000C284D8B4C294110E0B24BFD8000AD8A48B
:1002E000C286D8B4C296B3820000000000000000AD
:1002F0000000B39200000000B292B2800C6A040EBB
:100300000C6002D00C2AFBD7B290C282C2B2FED7D8
:10031000926A896A0F0148691F0E496FC450120022
:10032000086EEA6A140E0824E96EEFCF0AF008504E
:10033000AFDF096EEA6A200E0824E96E09C0EFFFFC
:100340000A52D8B409C00AF0050E0A5C096014D03C
:10035000EA6A1C0E0824E96E040EEF6006D0EA6A11
:100360001C0E0824E96EEF2A19D0EA6A180E082438
:10037000E96E010EEF6E12D0EA6A1C0E0824E96ED7
:10038000EF50D8B406D0EA6A1C0E0824E96EEF06D6
:1003900005D0EA6A180E0824E96EEF6A0A38E846C2
:1003A0001F0BD8B0010F0A5E0938E8461F0BD8B002
:1003B000010F0A26EA6A140E0824E96E0AC0EFFF4C
:1003C000EA6A180E0824E96EEF501200000C1F0EA6
:1003D000C16E936A946A050E9BDE050EB3DE050EB0
:1003E000CBDEC10ED56EF2942ADFE0DE016AFA0E92
:1003F00001600DD0006A050E006007D00050E7DEF6
:10040000F2A4FED7F294002AF6D7012AF0D7D9DE5B
:10041000026AF8DD110E0ADE350E12DE12DF74DE1E
:1004200077DE6EDE8FDE68DEA7DE006A050E006016
:10043000F6D70050CCDEF2A4FED7F294040E006092
:100440000AD000506DDF000AD8B403D00050CBDED4
:1004500002D00050DEDE002AE9D70D6E0D50700F7D
:10046000F66E040EF76AF722F86A0800F5501200DB
:10047000FEFDFBBF7F01020408FEFDFBF70001004B
:0604800001000001010073
:107FFC00BE00F700D800FF00FD00FB00BF00FB0037
:00000001FF
