:020000040000FA
:0400000083EF03F097
:1000080001D811009EB208D012004E0ECA6EFA0E28
:10001800CB6E9E929D8212009E92262A1200116E2D
:1000280011C025F01200116E11C024F012007F6E6D
:100038007FCF23F01200252A230E256442D0256A9B
:1000480012002552D8A403D0230E256E03D0990E92
:10005800252637D01200242A590E246436D0246A63
:1000680012002452D8A403D0590E246E03D0990E3E
:1000780024262BD01200232A590E23642AD0236A5F
:1000880012002352D8A403D0590E236E03D0990E20
:1000980023261FD01200255012002450120023508E
:1000A8001200232A590E236414D0236A242A590ED5
:1000B80024640BD0246A252A230E256402D0256ADD
:1000C800120025500700256E120024500700246EE8
:1000D800120023500700236E1200116E289011B0F1
:1000E8002880299011B229802A9011B42A802B9057
:1000F80011B62B80289211B82882299211BA298228
:100108002A9211BC2A822B9211BE2B821200116EE8
:10011800289611B02886299611B229862A9611B4F4
:100128002A862B9611B62B86289811B828882998E4
:1001380011BA29882A9811BC2A882B9811BE2B88B5
:100148001200116E289C11B0288C299C11B2298CA0
:100158002A9C11B42A8C2B9C11B62B8C289E11B882
:10016800288E299E11BA298E2A9E11BC2A8E2B9E72
:1001780011BE2B8E1200116E480E6ED8289011B049
:100188002880299011B229802A9011B42A802B90B6
:1001980011B62B80289211B82882299211BA298287
:1001A8002A9211BC2A822B9211BE2B821200116E48
:1001B8004D0E52D8289011B02880299011B229806C
:1001C8002A9011B42A802B9011B62B80289211B84E
:1001D8002882299211BA29822A9211BC2A822B924A
:1001E80011BE2B821200116E530E36D8289011B012
:1001F8002880299011B229802A9011B42A802B9046
:1002080011B62B80289211B82882299211BA298216
:100218002A9211BC2A822B9211BE2B821200620EE6
:100228002C6E950E2B6E840E2A6EB50E296E620EFC
:10023800286E1200286A296A2A6A2B6A2C6A120018
:10024800116E8268EA6A280E1124E96EEFCF81FFE9
:100258001150D6DA826E1200126E410E125E1250E2
:10026800040DF3501226050E1224CADA2C6E122A37
:10027800050E1224C5DA2B6E122A050E1224C0DAD6
:100288002A6E122A050E1224BBDA296E122A050ECE
:100298001224B6DA286E122A1200166E1650040DB1
:1002A800F3501626F80E2C16F80E2B16F80E2A16F2
:1002B800F80E2916F80E2816289016B028802990CE
:1002C80016B229802A9016B42A802B9016B62B8055
:1002D800289216B82882299216BA29822A9216BC20
:1002E8002A822B9216BE2B821200116E1200116EFA
:1002F8001200276A9FD7B39EB39AB398B396B39464
:10030800B392B390B29EB28AB28CB288B284B286EB
:10031800030EB16E0F0148691F0E496FC26A0A0EBB
:10032800C16EC280B38E926A896A356A366A376A44
:10033800386A316A326A336A346A2D6A2E6A2F6AD9
:10034800306A3D6A3E6A3F6A406A1200146E896AE2
:100358000000000000000000000000000000000095
:10036800870E14244DDA926E8B0E142449DA0F018D
:10037800486F0000000000000000000000000000BE
:1003880000008F0E14243CDA000AD8A4C284D8B422
:10039800C294930E142434DA000AD8A4C286D8B4BE
:1003A800C296B38200000000000000000000B39273
:1003B80000000000B292B280156A040E156002D0E7
:1003C800152AFBD7B290C282C2B2FED7926A896A56
:1003D8000F0148691F0E496F7F0EC46402D0C468BC
:1003E80002D0D890C436C3AEC490C3BEC480EA6AF3
:1003F800390E1424E96EC4CFEFFFC4501200116EF9
:10040800EA6A2D0E1124E96EEFCF13F011509EDF2A
:10041800EA6A390E1124E96EEFCF12F01352D8B4FC
:1004280012C013F0140E135C126014D0EA6A350E71
:100438001124E96E040EEF6006D0EA6A350E112425
:10044800E96EEF2A19D0EA6A310E1124E96E010E1D
:10045800EF6E12D0EA6A350E1124E96EEF50D8B467
:1004680006D0EA6A350E1124E96EEF0605D0EA6A6D
:10047800310E1124E96EEF6AEA6A3D0E1124E96E25
:10048800EF2A0F0EEF6429D0EA6A3D0E1124E96EB7
:10049800EF6AEA6A310E1124E96EEF50D8A40DD044
:1004A8001340E8423F0BD8B0010F135E1240E842F8
:1004B8003F0BD8B0010F13260AD013380F0BD8B052
:1004C800010F135E12380F0BD8B0010F1326EA6A1A
:1004D8002D0E1124E96E13C0EFFFEA6A310E1124C4
:1004E800E96EEF501200000C416A12004150D8B476
:1004F80013D0010AD8B419D0030AD8B419D0010A04
:10050800D8B419D0070AD8B419D0010AD8B41BD066
:10051800030AD8B41DD020D042908CDEC0DDDDDDCA
:10052800BCDDF5DDB8DD0DDE17D0B5DD24DE14D079
:10053800B4DD3DDE11D0B3DD56DE0ED0420E8CDECA
:10054800000E5BD809D0440E87DE010E56D804D0C1
:10055800430E82DE020E51D81200116E4150D8B4FB
:100568003BD0010AD8B410D0030AD8B416D0010A77
:10057800D8B41CD0070AD8B422D0010AD8B423D0E2
:10058800030AD8B425D028D0030E116201D053DD58
:10059800020E116221D055DD1FD0030E116201D069
:1005A8005ADD020E116218D05CDD16D0030E1162FE
:1005B80001D061DD020E11620FD063DD0DD0126A29
:1005C800115024D809D0010E126E11501FD804D032
:1005D800020E126E11501AD8112C0ED0412A060E96
:1005E80041640AD042A007D0170E126E600E136E37
:1005F8000C0E62D84290416A1200156EEA6A030E28
:100608001502F350170FE96EEF5047D6136EEA6ADA
:10061800030E1202F350170FE96EEFCF14F0030E1A
:10062800136216D0EA6A030E1202F350190FE96E2C
:10063800EF5014600DD0142A145025D8146EEA6AAD
:10064800030E1202F350170FE96E14C0EFFF428039
:10065800020E136216D0EA6A030E1202F350180F44
:10066800E96E1450EF600DD0140614500CD8146EB7
:10067800EA6A030E1202F350170FE96E14C0EFFF77
:1006880042801250BAD7156E15500700156E1550D6
:100698001200136EF86A11C0F7FFF66A146A135055
:1006A800146009D0090012C0E9FFEA6AF5CFEFFF2C
:1006B800122A142AF4D71200146EF86A13C0F7FF2E
:1006C800F66AA684A688F29E550EA76EAA0EA76E95
:1006D800A682156A1450156009D012C0E9FFEA6AAB
:1006E800EFCFF5FF122A0D00152AF4D7A684550E70
:1006F800A76EAA0EA76EA682A694F28E1200880E86
:100708009B6E0EEEBFF0ED6AEA50FDE1E950FBE1A9
:10071800EF6A1F0EC16E936A946A050EDEDC050E41
:10072800F6DC050E0EDDC10ED56EF294D09EF28C6D
:10073800F28E6BDC110E73DC350E75DCDADD6FDDE5
:10074800600E116E170E126E0C0EA3DF106AFA0EF1
:1007580010600DD00F6A050E0F6007D00F5070DDC6
:10076800F2A4FED7F2940F2AF6D7102AF0D762DD4A
:10077800096AC1DDB9DE9D92180E266404D0190EEF
:10078800265E9D828EDC9D82B1DE0F6A050E0F60AB
:10079800F2D70F5055DDF2A4FED7F294040E0F6085
:1007A80018D00F502CDE000AD8B408D00F509DDDA9
:1007B800EA6A0F50E96E010EEF6E0BD00F5097DD0D
:1007C800EA6A0F50E96EEF6AEA6A050E0F24E96ECD
:1007D800EF6AEA6A0F50E96EEF50D8B40FD0EA6AB0
:1007E800050E0F24E96EEF50D8A408D00F50B5DEDF
:1007F800EA6A050E0F24E96E010EEF6E0F2AC6D7BE
:10080800166E16501E0FF66E080EF76AF722F86A73
:100818000800F5501200FEFDFBBF7F40A0E0A0A03D
:10082800C0A0C0A0C040A080A040C0A0A0A0C0E0C0
:1008380080E080E0E080E0808040A080E040A0A0F0
:10084800E0A0A040404040E0202020A040A0C08080
:10085800C0A080808080E0A0E0A0A0A0A0E0E0A0F0
:10086800A040A0A0A040C0A0C0808040A0A0A060E0
:10087800C0A0C0C0A0E0804020E0E0404040E0A030
:10088800A0A0A0E0A0A0A0A040A0A0A0E0A0A0A040
:1008980040A0A0A0A0404040E0204080E001020429
:0E08A80008FEFDFBF700010001000001010049
:0A600000010504090901005500998B
:08FFF800BEF7D8FFFDFFBFFFBB
:020000040001F9
:00000001FF
