:020000040000FA
:1000000017EF03F007D80F013F8F0DD80F013F9175
:100010003F931200F29E550EA76EAA0EA76E0F0117
:100020003F8BF28E12000F013F9B1200116E0F01E9
:100030003FB9FDD70F013F81EDDF11C03AFFF3D784
:10004000116E0F013FB9FDD70F013F91E3DF11C0E2
:100050003BFFE9D77F6E0F013FB9FDD70F013F91FD
:10006000D9DF7FCF3AFFDFD70F013FB9FDD70F01AF
:100070003F81D0DF3ACF12F0230E126202D0126A13
:1000800001D0122A125007000F013A6FCCD70F018E
:100090003FB9FDD70F013F81BDDF3ACF12F01252B9
:1000A000D8A403D0230E126E02D0990E122612503D
:1000B00007000F013A6FB7D70F013FB9FDD70F0106
:1000C0003F91A8DF3BCF12F0590E126202D0126AA4
:1000D00001D0122A125007000F013B6FA4D70F0165
:1000E0003FB9FDD70F013F9195DF3BCF12F0125280
:1000F000D8A403D0590E126E02D0990E12261250B7
:1001000007000F013B6F8FD70F013FB9FDD70F01DC
:100110003F9180DF3ACF12F0590E126202D0126A7C
:1001200001D0122A125007000F013A6F7CD70F013D
:100130003FB9FDD70F013F916DDF3ACF12F0125258
:10014000D8A403D0590E126E02D0990E1226125066
:1001500007000F013A6F67D70F013F813A51120034
:100160000F013F913B5112000F013F913A51120094
:10017000116E189011B01880199011B219801A9050
:1001800011B41A801B9011B61B80189211B81882F6
:10019000199211BA19821A9211BC1A821B9211BEBD
:1001A0001B821200116E189611B01886199611B2A2
:1001B00019861A9611B41A861B9611B61B861898C2
:1001C00011B81888199811BA19881A9811BC1A8888
:1001D0001B9811BE1B881200116E189C11B0188C50
:1001E000199C11B2198C1A9C11B41A8C1B9C11B653
:1001F0001B8C189E11B8188E199E11BA198E1A9E52
:1002000011BC1A8E1B9E11BE1B8E1200116EA00E09
:100210001C6EA00E1B6EE00E1A6EA00E196EA00EC4
:10022000186E189011B01880199011B219801A9098
:1002300011B41A801B9011B61B80189211B8188245
:10024000199211BA19821A9211BC1A821B9211BE0C
:100250001B821200116EA00E1C6EE00E1B6EA00E13
:100260001A6EA00E196EA00E186E189011B018809C
:10027000199011B219801A9011B41A801B9011B6FE
:100280001B80189211B81882199211BA19821A9209
:1002900011BC1A821B9211BE1B821200116EE00E5D
:1002A0001C6E800E1B6EE00E1A6E200E196EE00E94
:1002B000186E189011B01880199011B219801A9008
:1002C00011B41A801B9011B61B80189211B81882B5
:1002D000199211BA19821A9211BC1A821B9211BE7C
:1002E0001B821200620E1C6E950E1B6E840E1A6E1F
:1002F000B50E196E620E186E1200186A196A1A6A23
:100300001B6A1C6A1200116E8268EA6A180E1124B8
:10031000E96EEFCF81FF1150F9D9826E1200116E94
:100320001150010AD8B40AD0010AD8B409D0030A7E
:10033000D8B408D0010AD8B407D007D01C8A05D099
:100340001C8803D01C8401D01C801200116E115037
:10035000010AD8B40AD0010AD8B409D0030AD8B423
:1003600008D0010AD8B407D007D01C9A05D01C9831
:1003700003D01C9401D01C901200176ABED7B39E04
:10038000B39AB398B396B394B392B390B29EB28A31
:10039000B28CB288B284B286030EB16E0F01486986
:1003A0001F0E496FC26A0A0EC16EC280B38E926A76
:1003B000896A256A266A276A286A216A226A236A64
:1003C000246A1D6A1E6A1F6A206A2D6A2E6A2F6AB5
:1003D000306A1200146E896A0000000000000000FC
:1003E0000000000000000000050E14248FD9926E5A
:1003F000090E14248BD90F01486F00000000000083
:10040000000000000000000000000D0E14247ED942
:10041000000AD8A4C284D8B4C294110E142476D988
:10042000000AD8A4C286D8B4C296B38200000000E5
:10043000000000000000B39200000000B292B28001
:10044000156A040E156002D0152AFBD7B290C2823D
:10045000C2B2FED7926A896A0F0148691F0E496FBE
:100460007F0EC46402D0C46802D0D890C436C3AE34
:10047000C490C3BEC480EA6A290E1424E96EC4CFB6
:10048000EFFFC4501200116EEA6A1D0E1124E96ECE
:10049000EFCF13F011509EDFEA6A290E1124E96EA6
:1004A000EFCF12F01352D8B412C013F0140E135C35
:1004B000126014D0EA6A250E1124E96E040EEF6072
:1004C00006D0EA6A250E1124E96EEF2A19D0EA6AED
:1004D000210E1124E96E010EEF6E12D0EA6A250E8C
:1004E0001124E96EEF50D8B406D0EA6A250E112423
:1004F000E96EEF0605D0EA6A210E1124E96EEF6A73
:10050000EA6A2D0E1124E96EEF2A0F0EEF6429D04E
:10051000EA6A2D0E1124E96EEF6AEA6A210E1124AF
:10052000E96EEF50D8A40DD01340E8423F0BD8B08D
:10053000010F135E1240E8423F0BD8B0010F1326A3
:100540000AD013380F0BD8B0010F135E12380F0BFF
:10055000D8B0010F1326EA6A1D0E1124E96E13C0EC
:10056000EFFFEA6A210E1124E96EEF501200000C31
:10057000316A12003150D8B40DD0010AD8B412D06B
:10058000030AD8B412D0010AD8B412D0070AD8B4DA
:1005900011D010D0B2DEE8DDEBDDE2DD03DEDCDD24
:1005A0001BDE08D0D9DD32DE05D0DADD53DE02D025
:1005B000DBDD74DE1200116E3150D8B40DD0010AAB
:1005C000D8B40FD0030AD8B419D0010AD8B423D0B4
:1005D000070AD8B42BD02AD0112C28D0010E316EA6
:1005E00025D0030E116201D03FDD020E116201D051
:1005F0004EDD112C1BD0020E316E18D0030E11628D
:1006000001D05ADD020E116201D069DD112C0ED02D
:10061000030E316E0BD0030E116201D075DD020E98
:10062000116201D084DD112C01D0316A1200880ED4
:100630009B6E0EEEBFF0ED6AEA50FDE1E950FBE182
:10064000EF6A1F0EC16E936A946A050E91DD050E66
:10065000A9DD050EC1DDC10ED56EF2948EDE42DE3F
:10066000106AFA0E10600DD00F6A050E0F6007D0E9
:100670000F5049DEF2A4FED7F2940F2AF6D7102AC3
:10068000F0D73BDE096ABEDC110ED0DC350ED8DCBB
:1006900076DE6EDF6FDF0F6A050E0F60FBD70F503F
:1006A00032DEF2A4FED7F294040E0F6018D00F5081
:1006B000EADE000AD8B408D00F5031DEEA6A0F50E3
:1006C000E96E010EEF6E0BD00F5040DEEA6A0F505C
:1006D000E96EEF6AEA6A050E0F24E96EEF6AEA6ACC
:1006E0000F50E96EEF50D8B40FD0EA6A050E0F2410
:1006F000E96EEF50D8A408D00F505DDFEA6A050E0E
:100700000F24E96E010EEF6E0F2AC6D7166E165033
:10071000220FF66E070EF76AF722F86A0800F55006
:100720001200FEFDFBBF7F01020408FEFDFBF70087
:080730000100010000010100BD
:107FFC00BE00F700D800FF00FD00FB00BF00FB0037
:00000001FF
