:020000040000FA
:10000000A7EF00F00F013F8F3F913F931200F29E48
:10001000550EA76EAA0EA76E0F013F8BF28E12002F
:100020000F013F9B12007F6E0F013FB9FDD70F01FB
:100030003F81EDDF7FCF3AFFF3D77F6E0F013FB9EE
:10004000FDD70F013F91E3DF7FCF3BFFE9D77F6E05
:100050000F013FB9FDD70F013F91D9DF7FCF3AFFA5
:10006000DFD70F013FB9FDD70F013F81D0DF0F016F
:100070003A51010F07003A6FD3D70F013FB9FDD7AF
:100080000F013F81C4DF0F013A51E80607003A6FC4
:10009000C7D70F013FB9FDD70F013F91B8DF0F015F
:1000A0003B51010F07003B6FBBD70F013FB9FDD795
:1000B0000F013F91ACDF0F013B51E80607003B6F9A
:1000C000AFD70F013FB9FDD70F013F91A0DF0F015F
:1000D0003A51010F07003A6FA3D70F013FB9FDD77F
:1000E0000F013F9194DF0F013A51E80607003A6F84
:1000F00097D7006E0F0E001432D8096E003A0F0E1B
:1001000000142DD8086E1200006E0F0E001427D8B0
:10011000066E003A0F0E001422D8056E1200006E13
:100120000F0E00141CD8036E003A0F0E001417D8DF
:10013000026E12007F6E816AEA6A020E7F24E96E07
:10014000EFCF82FF100E7F240AD8816E1200050EB9
:10015000D0DF050ED9DF050EE2DF0300FF00016EE0
:100160000150740FF66E010EF76AF722F86A080064
:10017000F550120000400444024206460141054584
:0C018000034307470102040810204080E0
:107FFC00FE00F700D800FF00FD00FB00BF00FB00F7
:00000001FF
